:020000040800F2
:1000000040080020C9010008110600086B04000820
:100010000D0600089F0200082328000800000000C9
:10002000000000000000000000000000D90C0008E3
:10003000A302000800000000C10B0008C50D000865
:10004000E3010008E3010008E3010008E301000800
:10005000E3010008E3010008EB020008E3010008E7
:10006000E3010008E3010008E3010008E3010008E0
:10007000E3010008E3010008E3010008E3010008D0
:10008000E3010008E3010008E3010008E3010008C0
:10009000E3010008E3010008E3010008E3010008B0
:1000A000E3010008E3010008E3010008E3010008A0
:1000B000E3010008290E0008E3010008E30100083D
:1000C000E3010008E3010008E3010008E301000880
:1000D000E30100088511000891220008E3010008EF
:1000E000E3010008E3010008E301000800F002F862
:1000F00000F05AF80AA090E8000C82448344AAF168
:100100000107DA4501D100F04FF8AFF2090EBAE865
:100110000F0013F0010F18BFFB1A43F0010318473B
:10012000D04A0000F04A00000A444FF0000C10F8DA
:10013000013B13F0070408BF10F8014B1D1108BF65
:1001400010F8015B641E05D010F8016B641E01F805
:10015000016BF9D113F0080F1EBF10F8014BAD1C55
:100160000C1B09D16D1E58BF01F801CBFAD505E073
:1001700014F8016B01F8016B6D1EF9D59142D6D3CD
:10018000704700000023002400250026103A28BFF5
:1001900078C1FBD8520728BF30C148BF0B607047F9
:1001A0001FB51FBD10B510BD00F044F81146FFF794
:1001B000F7FF03F019F900F062F803B4FFF7F2FF5C
:1001C00003BC00F065F80000094880470948004773
:1001D000FEE7FEE7FEE7FEE7FEE7FEE7FEE7FEE7F7
:1001E000FEE7FEE704480549054A064B7047000054
:1001F000C90D0008ED000008400200204008002062
:10020000400400204004002070477047704710B53C
:1002100000F008F8006810BD10B5044600F002F8C0
:10022000046010BD00487047DC01002000487047A2
:10023000DC0100207546FFF7F9FFAE460500694670
:10024000534620F00700854618B020B5FFF7CAFFD7
:10025000BDE820404FF000064FF000074FF00008C7
:100260004FF0000B21F00701AC46ACE8C009ACE848
:10027000C009ACE8C009ACE8C0098D46704710B5AC
:100280000446AFF300802046BDE81040FFF795BF5D
:1002900001491820ABBEFEE726000200704700BFF0
:1002A000FEE7704700B5034603E04FF47A7000F0B4
:1002B00005F8181EA3F10103F7D100BD00EBC00142
:1002C000C9004FF0E02251610021916105211161C7
:1002D00000BF4FF0E021096901F480310029F8D016
:1002E00004214FF0E0221161704710B5012000F0A9
:1002F0000BF8012801D100F001F810BD0149086098
:100300007047000014040140014600200022074B02
:100310001B6803EA0102054B14331B680B4013B141
:100320000AB1012000E000207047000000040140F5
:100330002DE9F0410246002500260020002300247C
:10034000002791F803C00CF00F0591F803C00CF0E2
:10035000100CBCF1000F03D091F802C04CEA050567
:1003600091F800C0BCF1000F31D0146800202BE0E0
:100370004FF0010C0CFA00F3B1F800C00CEA0306D0
:100380009E4220D183004FF00F0C0CFA03F7BC43C0
:1003900005FA03FC4CEA040491F803C0BCF1280FF1
:1003A00006D14FF0010C0CFA00FCC2F814C00AE0B0
:1003B00091F803C0BCF1480F05D14FF0010C0CFAC5
:1003C00000FCC2F810C0401C0828D1D31460B1F85A
:1003D00000C0BCF1FF0F34DD546800202EE000F1B6
:1003E000080C4FF0010808FA0CF3B1F800C00CEA51
:1003F00003069E4221D183004FF00F0C0CFA03F745
:10040000BC4305FA03FC4CEA040491F803C0BCF1B8
:10041000280F05D100F1080C08FA0CF8C2F8148076
:1004200091F803C0BCF1480F07D100F1080C4FF060
:10043000010808FA0CF8C2F81080401C0828CED336
:100440005460BDE8F0810246002093680B400BB178
:10045000012000E000207047416170470161704752
:100460000AB1016100E04161704700BFFEE7000092
:100470002DE9F04F8BB004460E46154629466068BC
:1004800003F008FE8346216803F01EFC8146D4F881
:1004900004A02946284603F0FDFD0290616903F09F
:1004A000F9FD0490D4E9031003F00EFC29460190F5
:1004B00003F0F0FD0290A16803F006FC039004999C
:1004C00003F002FC8346354903F0FEFB074628464D
:1004D000616903F0DFFD8346E16803F0F5FB0A90F4
:1004E0002846616903F0D6FD8346216903F0ECFBE1
:1004F00080462B49606903F0E7FB0990294938469B
:1005000003F0E2FB08903846089903F051FC07908D
:100510004046089903F04CFC06904946304603F0EB
:1005200079FF05900599079803F0B4FD8346494685
:1005300003F0CAFB2060DDE9051003F0ABFD834644
:10054000514603F0C1FB60604FF07E50079903F005
:1005500061FF8346394603F09DFDA0604FF07E5059
:10056000079903F057FF83460A9903F093FDE06073
:100570003946069803F08EFD8346414603F0B8FEE7
:1005800020610A99069803F085FD8346099903F0D6
:10059000AFFE60610BB0BDE8F08F00000000A0402E
:1005A0000000A0410000C84108B5002000900121D2
:1005B000042000F017FB4FF40040ADF800001020BD
:1005C0008DF8030003208DF8020069460448FFF708
:1005D000AFFE4FF400410248FFF740FF08BD0000A6
:1005E0000008014010B54FF400410248FFF736FF04
:1005F00010BD00000008014010B54FF40041024852
:10060000FFF72AFF10BD00000008014000BFFEE711
:100610007047000070B5002100230F22C47804B396
:10062000154C246804F4E064C4F5E064210AC1F1C7
:100630000403CA40447804FA03F184781440214347
:1006400009010E4C0678A155047804F01F05012419
:10065000AC4005786D11AD0005F1E025C5F800410D
:1006600009E0047804F01F050124AC40044D06782D
:10067000761145F8264070BD0CED00E000E400E086
:1006800080E100E002490143024A11607047000026
:100690000000FA050CED00E070B500240EE000212A
:1006A000204600F0EAF8002504E0002000F040F9C0
:1006B000681CC5B2802DF8DB601CC4B2082CEEDBD0
:1006C00070BD000008B50121082000F08BFA14204D
:1006D0008DF8030003208DF802004FF40060ADF8A0
:1006E000000069460A48FFF723FE4FF48060ADF82A
:1006F000000069460648FFF71BFE0122D1020448AC
:10070000FFF7AEFE012291020148FFF7A9FE08BDE6
:10071000000C014070B50546002419E080202041FE
:10072000284008B1012000E0002002464FF480611B
:100730000E48FFF795FE0122D1020C48FFF790FE0C
:1007400000224FF400610948FFF78AFE601CC4B222
:10075000082CE3DB0122D1020448FFF781FE0022CE
:100760004FF400610148FFF77BFE70BD000C0140B3
:1007700010B5012291020A48FFF772FE0122D10250
:100780000748FFF76DFE00224FF480610448FFF731
:1007900067FE00224FF400610148FFF761FE10BDC3
:1007A000000C014010B500224FF480610648FFF7AD
:1007B00057FE0122D1020448FFF752FE01229102A6
:1007C0000148FFF74DFE10BD000C014070B500243C
:1007D00006E0002500E06D1CB5F57A7FFBD3641CB4
:1007E000B4F57A7FF5D3FFF76DFFAE2000F090F8F7
:1007F000D52000F08DF8802000F08AF8A82000F0C5
:1008000087F83F2000F084F8D32000F081F8002022
:1008100000F07EF8402000F07BF8A12000F078F88E
:10082000C82000F075F8DA2000F072F8122000F00D
:100830006FF8812000F06CF8CF2000F069F8D92023
:1008400000F066F8F12000F063F8DB2000F060F8BB
:10085000302000F05DF8A42000F05AF8A62000F047
:1008600057F88D2000F054F8142000F051F8AF2014
:1008700000F04EF8FFF710FF70BD70B505460C464E
:1008800045F0B00000F044F8102141EA141000F0E7
:100890003FF804F00F0000F03BF870BD2DE9F04187
:1008A00005460E461746721ED206110E6A1E5206E5
:1008B000100EFFF7E2FF002409E0A7F12001134A20
:1008C00002EB0111085D00F033F8601CC4B2082C83
:1008D000F3DB721ED206110E6A1E012303EB4202E5
:1008E000D0B2FFF7CAFF00240BE0A7F12001074AAE
:1008F00002EB011204F10801505C00F019F8601CD1
:10090000C4B2082CF1DBBDE8F0810000DE45000830
:1009100010B50446FFF72CFF7820FFF7FBFE002000
:10092000FFF7F8FE2046FFF7F5FEFFF73BFF10BD8F
:1009300010B50446FFF71CFF7820FFF7EBFE4020C0
:10094000FFF7E8FE2046FFF7E5FEFFF72BFF10BD9F
:1009500008B50121042000F045F914208DF80300AA
:1009600003208DF802000002ADF80000694611482E
:10097000FFF7DEFC4FF400710E48FFF76FFD4FF4F8
:1009800080710C48FFF76AFD642000F087F81021A1
:10099000002000F072F8322000F080F87921FE206B
:1009A00000F06BF8A021002000F067F8322000F082
:1009B00075F808BD000C014070B505460C46B4F54D
:1009C000F87F0ADBB4F5007F07DC204604EBD0712A
:1009D0004910A4EB4101611A8CB2B4F5007F0BDD24
:1009E00040F20A20844207DC204604EBD071491013
:1009F000A4EB4101611A8CB2DC2C0ADBB4F5877FD1
:100A000007DC204604EBD0714910A4EB4101611AC8
:100A10008CB240F6FF70844205DB421C0021284660
:100A200000F00EF80BE02CB900221146284600F029
:100A300007F804E022460021284600F001F870BDC6
:100A400070B506460C46154600F05AF8802000F0B6
:100A50002DF8B100891DC8B200F028F8E0B200F00E
:100A600025F8201200F022F8E8B200F01FF8281252
:100A700000F01CF800F062F870BD70B505460C4639
:100A800000F03EF8802000F011F8284600F00EF843
:100A9000204600F00BF800F051F870BD002100E096
:100AA000491CB1EBC00FFBD37047000070B5044682
:100AB00000251EE004F0800028B14FF480710F483B
:100AC000FFF7CCFC04E04FF480710C48FFF7C4FC46
:100AD0006006040E4FF400710848FFF7BFFC0520C4
:100AE000FFF7DCFF4FF400710448FFF7B5FC681C0A
:100AF000C5B2082DDEDB00F03BF870BD000C0140F4
:100B000010B54FF480710C48FFF7A8FC4FF400714A
:100B10000948FFF7A3FC0520FFF7C0FF4FF48071E1
:100B20000548FFF799FC0520FFF7B8FF4FF4007167
:100B30000148FFF791FC10BD000C014010B54FF4C7
:100B400080710A48FFF788FC4FF400710748FFF7EF
:100B500085FC0520FFF7A2FF4FF480710348FFF7E3
:100B60007DFC0520FFF79AFF10BD0000000C01403E
:100B700010B500244FF480711048FFF76FFC4FF45C
:100B800000710E48FFF76AFC0120FFF787FF07E0BE
:100B9000601CC4B2FA2C03DDFFF7D0FF012010BDAA
:100BA0004FF480710548FFF74EFC0028F0D14FF458
:100BB00000710248FFF750FC0020F0E7000C0140F4
:100BC0007047000029B1064AD2690243044BDA613A
:100BD00004E0034AD2698243014BDA6170470000A6
:100BE0000010024029B1064A92690243044B9A61FF
:100BF00004E0034A92698243014B9A617047000006
:100C00000010024030B500210022002400232D4DA9
:100C10006D6805F00C0121B1042905D0082923D104
:100C200005E0294D056022E0274D05601FE0254DB8
:100C30006D6805F47012234D6D6805F4803402254B
:100C400005EB92421CB9214D554305600BE01D4D4B
:100C50006D6805F400351DB11C4D5543056002E07B
:100C6000194D5543056002E0174D056000BF00BFF8
:100C7000144D6D6805F0F0010909154D6B5C0568B0
:100C8000DD4045600F4D6D6805F4E061090A104DC7
:100C90006B5C4568DD4085600A4D6D6805F4605108
:100CA000C90A0B4D6B5C4568DD40C560054D6D683C
:100CB00005F44041890B074D6B5CC568B5FBF3F546
:100CC000056130BD0010024000127A0000093D00AD
:100CD0000000002010000020704710B500F002F85E
:100CE00010BD00000CB50020019000903348006852
:100CF00040F480303149086000BF3048006800F49B
:100D0000003000900198401C0190009818B901989B
:100D1000B0F5A06FF1D12948006800F4003010B19F
:100D20000120009001E0002000900098012843D1AC
:100D30002348006840F01000214908600846006818
:100D400020F0030008600846006840F002000860D8
:100D50001A48406819494860084640684860084693
:100D6000406840F4806048600846406820F47C1089
:100D700048600846406840F4E8104860084600684B
:100D800040F08070086000BF0C48006800F0007000
:100D90000028F9D00948406820F00300074948605E
:100DA0000846406840F00200486000BF03484068C1
:100DB00000F00C000828F9D10CBD00000010024022
:100DC000002002407047000010B51348006840F052
:100DD00001001149086008464068104908400E4962
:100DE0004860084600680E4908400B4908600846FC
:100DF000006820F4802008600846406820F4FE0067
:100E000048604FF41F008860FFF767FF4FF00060F5
:100E10000449086010BD0000001002400000FFF807
:100E2000FFFFF6FE08ED00E010B50121874800F055
:100E300036F901287ED186480068401C8449086044
:100E400084480068142805DA82480068401C8149FB
:100E50000860DFE000207F4908607F4800780028B4
:100E600015DD7E480078042811D17D48006803F024
:100E700095F804462146002002F092F9794800686E
:100E800003F08CF804462146012002F089F97648E7
:100E90000078012829D17548007802280AD17448C1
:100EA000406840F25221884204DC71484068801C4E
:100EB0006F4948606D480078032808D16C48806805
:100EC0006A2804DB6A488068801E69498860674830
:100ED0000078042809D16648C068B0F5967F04DB25
:100EE0006348C068401E6249C8605F4800780228B5
:100EF0002CD15E480078022808D15D4840686A28F5
:100F000004DB5B484068801E5949486057480078B8
:100F100003280AD15648806840F25221884204DCF6
:100F200053488068801C52498860504800780428E3
:100F30000CD100E089E04E48C06840F2522188425E
:100F400004DC4B48C068401C4949C86049480078E7
:100F5000032805DA47480078401C4649087002E03B
:100F600000204449087044484249097850F821005B
:100F70003F49404A127851F8221088424AD03C48F2
:100F80003C49097850F821003B493A4A127851F817
:100F90002210441A37480078032809D1072C01DDB4
:100FA00007240EE014F1070F0BDA6FF0060408E0D7
:100FB0000C2C01DD0C2404E014F10C0F01DA6FF0AD
:100FC0000B042D482B49097850F8210020442A4968
:100FD000284A127841F822000A46264B1B7832F83C
:100FE000232091B2234A1278C2F10D02D0B2FFF74A
:100FF000E3FC2048007803280BD16420FFF75EF95A
:101000001D481C4A127830F8220081B20920FFF7EF
:10101000D3FC00BF19480068B0F57A7F05DA17489D
:101020000068401C154908600BE000201349086067
:1010300009480078002804DD07480078401E06496A
:1010400008700121014800F01BF810BD00040040A9
:10105000680000201C000020380000205400002000
:101060004400002048000020280100202701002023
:101070002C010020200000203C010020180000204E
:10108000CA430282704721B1028842F00102028005
:1010900004E002884FF6FE731A400280704730B5B4
:1010A0000246002000230024158A05EA01039589E1
:1010B00005EA010413B10CB1012000E0002030BDAD
:1010C0001AB183890B43838102E083898B43838137
:1010D000704701894FF6F872114001817047000096
:1010E000002202881D4B98420ED01D4B98420BD017
:1010F000B0F1804F08D01B4B984205D01A4B984254
:1011000002D01A4B984204D14FF68F731A404B8885
:101110001A43174B984207D0164B984204D04FF60B
:10112000FF431A40CB881A4302808B8883850B8843
:1011300003850A4B98420BD0094B984208D00E4BBE
:10114000984205D00D4B984202D00D4B984201D1E8
:101150000B7A03860123838270470000002C014034
:10116000003401400004004000080040000C004032
:1011700000100040001400400040014000440140C5
:101180000048014000B59FB02021FD4801F01FFA42
:10119000012840F0ED87FA4801F03EFBC0B21E90F6
:1011A000F848007800283FD1F7490860F7490860FF
:1011B000F7490860F7490870F7490860F74908607F
:1011C000F7490860F74908600120F7490870F749B6
:1011D00008600020F64908600120F64908600020F8
:1011E000F54908604860F548886048610020C8609B
:1011F0000861F34908604860F04888604861002051
:10120000C8600861EF490870EF490860EF4908605D
:10121000EF490860EF490860EF490860EF4908604E
:10122000EF490860EF490860062101201E9AFFF788
:1012300035FB0220D34908701E9841287ED0D5483E
:101240000078052861D2DFE800F0031527394B004C
:101250001E982C2803D10120CE49087009E0CA4805
:10126000006800EB80011E9800EB41003038C64951
:1012700008604AE01E982C2803D10220C549087056
:1012800009E0C248006800EB80011E9800EB4100B5
:101290003038BE49086038E01E982C2803D103205E
:1012A000BC49087009E0BA48006800EB80011E984C
:1012B00000EB41003038B649086026E01E982C2823
:1012C00003D10420B349087009E0C748006800EB67
:1012D00080011E9800EB41003038C349086014E0DB
:1012E0001E986E2803D10520AA4908700CE01E98AC
:1012F0005C2809D0BD48006800EB80011E9800EB17
:1013000041003038B949086000BF00BFA1480078EB
:1013100005287DD19C480068A0F5A0709E49086012
:101320009A480068C0F1F0009C4908609E48007827
:10133000012808D0022807D0032800E0FEE368D087
:10134000042800D12DE22BE2A7480068A0F5A07088
:1013500091490860A5480068C0F1F0008F49086015
:10136000A148006800285DD08B48006802F032FE7A
:1013700092491C9002F01CFD1D909D4801681D982B
:1013800002F0B6FF9A4908608448006802F022FE25
:101390008A491C9002F00CFD1D90964801681D982A
:1013A00002F092FC934908607B4800680C2807DD36
:1013B0004FF07E518E48006803F02CF88C4908608D
:1013C0007548006810F10C0F07DC4FF07E5188481B
:1013D000006802F079FC86490860704800680A28B5
:1013E0000BDD6E480068642807DC4FF07E518148B1
:1013F000006802F069FC7F4908606848006810F1E5
:101400000A0F0FDA6548006810F1640F0ADB01E08B
:10141000F9E33CE04FF07E517648006802F0FAFFB5
:10142000744908605C4800681A281ADA5A4800684B
:1014300010F11A0F15DD59480068182811DA5748BD
:10144000006810F1180F0CDD6B480068401C6A49F9
:10145000086008460068142806DB032001F0BCFE83
:1014600002E00020644908606148006802F096FDCF
:1014700001461D90002001F093FE5E48006802F0D6
:101480008DFD01461D90012001F08AFE5BE7564864
:101490000068A0F5A0704049086054480068C0F199
:1014A000F0003E49086055480078052867D2DFE81B
:1014B00000F003CBFAF9F80033480068A0F5A070FB
:1014C0003549086031480068C0F1F00033490860D0
:1014D0004548006800282ED000214948006802F0E5
:1014E00029FD29D12D48006846490968401A10F1A4
:1014F000320F20DB2948006842490968401A322827
:1015000019DC2548006840490968401A40432349CE
:1015100009683C4A1268891A204A1268394B1B68CC
:10152000D21A01FB02001C9002F054FD1D9002F043
:1015300091FA3349086086E0174800683249096823
:10154000401A4043154909682E4A1268891A134AFD
:1015500012682C4B1B68D21A01FB02001A9002F091
:1015600039FD1B9002F076FA1C90254801681C9802
:1015700002F0BEFE20F0004024491D9048E00EE13C
:1015800000380140380000202400002028000020FE
:101590003400002021000020700000207400002092
:1015A000780000207C00002054000020640000200F
:1015B000680000205C0000209C0000200000C84261
:1015C000B4000020E4000020EC000020E80000202F
:1015D000CC000020D00000201001002014010020C9
:1015E000080100200C0100202C0000203000002009
:1015F0004400002048000020580000206000002027
:10160000880000208400002080000020000020428C
:1016100002F00CFD14D80120FE490870FE49087044
:10162000FE480168002001F0BBFDFD480068FD494F
:101630000968401A01461D90012001F0B1FD02E049
:101640000020F9490860AAE0F348007806282BDB5F
:10165000F448006802F0BEFC1D90F4480068F449AC
:101660000968401A1B9002F0B5FC1C901D9902F00D
:101670009FFBF04908600320E64908700120E64915
:101680000870E6480068EC490968084401461D9066
:10169000002001F085FDE2480168012001F080FD95
:1016A00007E05BE039E005E0DB480078401CDA4900
:1016B000087074E0D8480078142828DBD9480068FE
:1016C00002F088FC1D90DA480068D8490968401A81
:1016D0001B9002F07FFC1C901D9902F069FBD5491C
:1016E00008600320CB4908700120CB490870CB4823
:1016F0000068D1490968084401461D90002001F0A6
:101700004FFDC7480168012001F04AFD04E0C248CE
:101710000078401CC049087041E0BF480078142898
:1017200016DBC548006802F055FC1D90C3480068F0
:10173000C3490968401A1B9002F04CFC1C901D998B
:1017400002F036FBBF490860042001F045FD04E0CB
:10175000B1480078401CB049087020E0AE480078DD
:10176000142816DBB448006802F034FC1D90B4481D
:101770000068B2490968401A1B9002F02BFC1C90CB
:101780001D9902F015FBAF490860042001F024FD0B
:1017900004E0A1480078401C9F49087000BF00BFCA
:1017A000FEE3A9480068A9490968401A0B9002F0B5
:1017B00011FC1D9000211D9802F038FC04D9A449A9
:1017C0001D9802F033FD01D2A2481D909E48016889
:1017D0009E480160A0480068A0F5A0709849086084
:1017E0009E480068C0F1F000914908609448006884
:1017F00002F0F0FB0B90014699481D9AFEF738FE67
:101800008B48006802F0E6FB0B90014695481D9A54
:10181000FEF72EFE924800681C90924800681B90CC
:101820008648006802F0D6FB0B901C9902F060FD20
:101830001A907E48006802F0CDFB0B901B9902F0D5
:1018400057FD1990DDE9190101F0D6F81890864886
:101850000168189802F0DEFD17908449179802F08D
:10186000E5FC04D28249179802F0D4FD1790814913
:10187000179802F0DBFB04D27D49179802F024FA96
:1018800017907949189808601D99179802F090FAF6
:1018900016907949794A1698126841F822007748DB
:1018A0000068401CC1170B9000EBD16041110B98F0
:1018B000A0EB41117148016071480068202804DAEA
:1018C0006F480068401C6E4908606D480068202819
:1018D00050DB00200A9009900B900CE066490B98B1
:1018E00051F82000014606900A9802F0EDF90A909E
:1018F0000B98401C0B900B982028EFDB4FF0844195
:101900000A9802F055FA089000200B901CE05A4902
:101910000B9851F820000390089902F07BFD56497E
:1019200005900B9851F820000390089902F072FD81
:101930000490059902F0AEFB0690099902F0C4F9F3
:1019400009900B98401C0B900B982028DFDB4FF080
:101950008441099802F02CFA07904A49079802F04E
:1019600065FB03D201204849087002E00220464985
:10197000087000BF4549169802F08CFB44490B9053
:101980004448006802F086FB0A900B9902F09CF92B
:10199000404908603C480078022839D12A4800684C
:1019A00002F018FB05903C480168059802F032FDF2
:1019B0000B903A493A48006802F06CFB0A90DDE966
:1019C0000A0102F067FB059036480168059802F0AD
:1019D0007BF9099034480168344802F01BFD0890F7
:1019E000099801F073FF04902F480168049802F0F1
:1019F00051FB0590089902F067F90790079916982E
:101A000002F008FD0690099801F060FF04904FE095
:101A1000C3E0000060000020610000204C000020B6
:101A20005000002098000020880000208400002042
:101A3000740000209000002094000020800000200E
:101A4000700000208C000020680000206C00002046
:101A50000000FA430000A0412400002028000020DC
:101A60009C000020B4000020CC000020D80F49408A
:101A7000D80FC940D80F49C04C010020E800002011
:101A8000EC00002059D90033E40000209A99193E57
:101A90009A99593FD0000020E00000206F12833A4D
:101AA000D8000020DC000020D40000208FC20540B8
:101AB000FE48069902F0EEFA0390049902F0EAFA61
:101AC0000590FB480168059802F0FEF8F8490860A7
:101AD000099801F0BFF80390F648069902F0DAFA87
:101AE0000090F3480168009802F0D4FA01900B9935
:101AF00002F0D0FA0290039902F0CCFAEE49049079
:101B000002F0C8FA0590ED480168059802F0DCF88B
:101B1000EA490860099801F09DF80490E8480699A0
:101B200002F0B8FA0290E2480168029802F0B2FAB4
:101B30000390049902F0AEFA059000E0B3E2E148A8
:101B40000168059802F0C0F8DE490860DE49D8480F
:101B5000006802F06BFA02D2DB48D5490860DB4925
:101B6000D348006802F062FB02D2D848D04908602E
:101B7000D749D248006802F059FA02D2D448CF4976
:101B800008604FF08041CD48006802F04FFB03D25F
:101B90004FF08041C948016000BFCE481490CE4844
:101BA000007801280CD1CD481499006802F072FA2F
:101BB0000B90CB4801680B9802F086F8159063E013
:101BC000C5480078022853D1C648006802F002FADE
:101BD0000690C5480168069802F01CFC0B90B649B7
:101BE000B648006802F056FA0A90B1480168BF484A
:101BF00002F010FC0990BE480890B94800681590A2
:101C0000002007902EE04DE207990B9802F05CF857
:101C100001900A9902F03EFA0290AA4801680298DF
:101C200002F052F8039001F051FE0490A0480168C0
:101C3000049802F02FFA0590099902F045F80690F1
:101C40009D49069802F026FA0490089902F022FABB
:101C50000590159902F038F81590DDE9070102F0BA
:101C600033F807901499079802F0E0F9CCD30BE011
:101C70009A481499006802F00DFA0B909848016890
:101C80000B9802F021F81590159800F0E3FF0990E9
:101C900098480168099802F0FDF90B909648006891
:101CA00002F098F90A900B9902F00EF8139015982B
:101CB00001F00CFE09908F480168099802F0EAF9DA
:101CC0000B908E48006802F085F90A900B9901F09C
:101CD000FBFF12908A480168139802F069F80B9094
:101CE0008848006802F076F90A900B9901F0ECFF41
:101CF000119085480168129802F05AF80B908348B9
:101D0000006802F067F90A900B9902F083FB1090CB
:101D10007F480168119802F07DFB7E490A9002F02D
:101D2000B9F90B907A4801680B9801F0CDFF78491A
:101D3000086079480168109802F06CFB75490A90B8
:101D400002F0A8F90B90744801680B9801F0BCFFF1
:101D50007149086013991C9802F05CFB0F9012996E
:101D60001B9802F057FB0E906C490F9802F092F905
:101D70000B906B4801680B9801F0A6FF684908605A
:101D800066490E9802F086F90B90664801680B9838
:101D900001F09AFF6349086063496148006802F0F6
:101DA00045FA02D260485E49086060495C480068B4
:101DB00002F03CF902D25D49594801605A4959483C
:101DC000006802F033FA02D2574856490860574972
:101DD0005448006802F02AF902D254485149086078
:101DE000534801680F9802F015FB0D9051480168A7
:101DF0000E9802F00FFB0C904D490F9808604D496A
:101E00000E980860464801684B48006802F042F9A5
:101E100009904A480D99006802F03CF9079048483B
:101E20000F99006802F036F90690079901F04CFF0F
:101E30000890099901F048FF0A90314801680A9812
:101E400001F0B6FF0B90324801680B9801F03CFF9F
:101E50003C490860334801683748006802F01AF9C5
:101E6000099036480C99006802F014F9079034483C
:101E70000E99006802F00EF90690079901F024FF10
:101E80000890099901F020FF0A901F4801680A98FC
:101E900001F08EFF0B90204801680B9802F028FAA1
:101EA0002949086029492748006851E0BD370636AE
:101EB000D400002095BFD6336F12833AD80000209B
:101EC000ACC52737DC00002014AE473F8FC2853FEA
:101ED000E926F13F0000A041E4000020D0000020EE
:101EE000CC00002068000020E00000208FC20540E8
:101EF0000000A04088000020800000208400002016
:101F00008C0000204C000020900000205000002099
:101F1000180100208FC2F53D1C0100200AD7A33C08
:101F2000100100201401002000004040000040C0CB
:101F3000080100200C010020040100200001002005
:101F4000FC000020440000204800002000009643D0
:101F500002F06CF802D287488749086087498648B2
:101F6000006802F063F902D2844983480160844921
:101F70008448006802F05AF802D28148814908601A
:101F800081498048006802F051F902D27E487D49BB
:101F900008607E4800687E4908607E48006800E06E
:101FA00002E07D49086000BF00BF7C480068E8B3DC
:101FB0007B480068D8B300F00BFF7A480068A0F5B2
:101FC000A0707249086078480068C0F1F00071495B
:101FD000086072480068032849DB744800680128DB
:101FE00045D16B48006869490968411A6A48006828
:101FF000684A1268801A0844642838DC644800681B
:1020000062490968401A64490968624A1268891A73
:10201000084410F1640F2ADB5D4800685B490968D9
:10202000411A5D4800685B4A126801E02AE027E037
:10203000801A081A64281ADC554800685349096850
:10204000401A55490968534A1268891A401A10F112
:10205000640F0CDB51480068C01E5049086000F056
:10206000B7FE022001F0B8F800204C49086047484C
:10207000006847490860474800684749086001E030
:1020800000F0A6FE0020474908604749086048491B
:1020900008604349086047490860474908700120C3
:1020A000424908605FE041480068401C3F490860C1
:1020B0003A48006808B100F08BFE404800780128DB
:1020C00006D0022805D003280BD004284AD148E0C6
:1020D00048E0364800680F2802DB012001F07CF858
:1020E00040E037480078401C354908703548007892
:1020F000012818D12D480068502814DB02203149EE
:10210000087001202E4908702F480168002001F056
:1021100047F82E4800682E490968084401461D907A
:10212000012001F03DF827480078032818D11F4806
:102130000068502814DB042022490870012020493F
:1021400008702148006823490968401A01461D901B
:10215000002001F025F81D480168012001F020F859
:1021600000E000BF00BF20211B4800F01BFA00BFA9
:102170001FB000BD0000964344000020000016443C
:102180000000F04248000020000070437000002072
:1021900078000020740000207C0000205C000020FB
:1021A0002C000020240000202800002064000020D3
:1021B00034000020300000202100002054000020C6
:1021C00061000020600000204C0000205000002032
:1021D00098000020940000200038014000B587B02E
:1021E00001214804FEF7EEFC01210420FEF7FAFC71
:1021F00018208DF81B000420ADF8180003208DF87E
:102200001A0006A92048FEF793F848208DF81B0015
:102210000820ADF8180003208DF81A0006A91A4806
:10222000FEF786F84FF4A060FEF72CFA26208DF812
:10223000140001208DF817008DF815008DF8160098
:1022400005A8FEF7E7F9012240F225510F4800F0FA
:1022500051FA4FF4165001900020ADF810000C20F8
:10226000ADF80E000020ADF80C00ADF80A00ADF896
:10227000080001A9054800F063FA0121034800F0B5
:102280009AF907B000BD000000080140004400407A
:1022900010B540F22551B54800F0A6F900287DD0D0
:1022A000B24800F0B9FAC4B2B1480078012854D15C
:1022B000302C0CDB392C0ADCA4F13000AD49096864
:1022C00001EB810100EB4100AA49086044E02C2C9D
:1022D00013D1A948007804280BDAA6480168A7485A
:1022E000A54A127840F82210A3480078401CA24961
:1022F000087000209F4908602EE05D2C25D19E4883
:102300000078032803D19B4800689C49C8600120DD
:1023100011E09A4951F8201064290BDB974951F8D4
:102320002010B1F5167F05DC944951F82010944A2D
:1023300042F82010401C0328EBDD00208C49087077
:102340008C4908608C49087006E0002088490870B4
:10235000884908608849087010BD5B2C08D10120AD
:102360008349087000208349086083490870F3E7B7
:10237000612C02D1002083490870412C02D1012038
:1023800080490870422C02D102207E490870552CE9
:1023900002D107207B490870562C00E0E4E002D10E
:1023A000082078490870432C02D103207549087031
:1023B000442C02D1042073490870452C02D1052019
:1023C00070490870462C02D106206E4908704F2CC7
:1023D00008D16D480078002804DD6B480078401E65
:1023E00069490870502C08D167480078072804DA3A
:1023F00065480078401C64490870512C02D10320C4
:1024000061490870472C02D1012060490870482CAE
:1024100002D102205D490870492C02D103205B499A
:1024200008704A2C02D10420584908704B2C02D164
:102430000120574908704C2C02D1022054490870E1
:10244000622C02D10020524908704D2C02D101208B
:10245000504908704E2C02D102204E4908706D2C54
:1024600002D100204B490870692C02D1042049494F
:1024700008706A2C02D10320464908706F2C02D1E3
:1024800001203F490860702C02D102203C490860BD
:10249000712C02D100203A490860522C02D101204F
:1024A0003D490870532C02D102203B490870722C20
:1024B00002D1002038490870642C07D1DC20304953
:1024C0004860642088604FF41170C860652C05D1A5
:1024D000FA202B49486088604000C860662C07D10C
:1024E000642027494860FA2088604FF49170C860E2
:1024F000672C09D14FF41170214948604FF4CD7019
:1025000088604FF40C70C860682C06D1DC201C4930
:102510004860962088608000C860542C23D11F48F2
:10252000007860B94FF4E171002000F039FEB42169
:102530000220FEF741FA01201849087013E01748FD
:10254000007801280FD11648007860B94FF4E17186
:10255000002000F025FE4FF4FF710220FEF72CFA58
:1025600000200E49087000BF00BFF5E6004400409F
:10257000F0000020F4000020F8000020CC01002032
:102580002C01002021010020230100202701002030
:1025900028010020290100202501002062000020E0
:1025A0003800002001F40072B2F5007F00D100BFB6
:1025B000CA430280704721B1828942F4005282816D
:1025C00004E082894DF6FF731A408281704702460B
:1025D0000020B1F5007F00D100BF13880B400BB184
:1025E000012000E00020704770B50246002400235F
:1025F0000025002040F66A16B14200D100BFC1F3A9
:10260000421501F01F03012606FA03F3012D02D142
:102610009689334006E0022D02D1168A334001E04C
:10262000968A33400C12012606FA04F416883440C8
:1026300013B10CB1012000E0002070BD00B587B0DF
:1026400001210420FEF7CEFA01218803FEF7CAFA21
:1026500018208DF81B004FF40070ADF8180003200F
:102660008DF81A0006A92148FDF762FE48208DF872
:102670001B004FF48060ADF8180003208DF81A009D
:1026800006A91A48FDF754FE4FF4A060FDF7FAFFC3
:1026900025208DF8140001208DF817008DF8150005
:1026A0008DF8160005A8FDF7B5FF012240F225516F
:1026B0000F4800F01FF84FF4165001900020ADF8BD
:1026C00010000C20ADF80E000020ADF80C00ADF8A5
:1026D0000A00ADF8080001A9054800F031F8012111
:1026E0000348FFF768FF07B000BD00000008014085
:1026F00000380140F0B503460024002600250020E4
:1027000040F66A17B94200D100BF1846C1F342141F
:1027100001F01F06012707FA06F5012C01D10C3044
:1027200004E0022C01D1103000E014301AB1076827
:102730002F43076002E00768AF430760F0BD000069
:102740002DE9F04786B005460E460024A24600BF9C
:10275000A1460027B08900B100BF2F462C8A4CF655
:10276000FF700440F08804432C82AC894EF6F310CD
:102770000440B08831890843718908430443AC811F
:10278000AC8A4FF6FF400440B0890443AC8201A8F4
:10279000FEF738FA1F48874202D1DDF810A001E0A9
:1027A000DDF80CA0A88900F4004040B10AEBCA0093
:1027B00000EB0A1031684900B0FBF1F807E00AEBC2
:1027C000CA0000EB0A1031688900B0FBF1F8642000
:1027D000B8FBF0F004012009642101FB1089A889ED
:1027E00000F4004040B1322000EBC900B0FBF1F032
:1027F00000F00700044308E0322000EB09106421D8
:10280000B0FBF1F000F00F0004432C8106B0BDE8EE
:10281000F08700000038014001468888C0F30800B6
:10282000704700BFFEE74100080218BF04200A0EEF
:1028300018BF40F001004FF07F4232EA010108BFAB
:1028400040F00200012808BF05207047012101F077
:1028500088BE01F039BA0021084601F0A9BA6FF02C
:102860005E01080701F07DBE2DE9F04D0D461446CE
:102870004FF07F41B1EB440F9EBF4FF0FF31296015
:10288000BDE8F08D4FF0004040EA0421C4F3C7508A
:10289000783810F01F024A4B4FEA601CC2F1200644
:1028A0007B44C4F3C750A0F178004FEA601003EBFB
:1028B000800053F82C3008BFD0E901C612D0D0F800
:1028C00004C093402CFA06F73B4387680CFA02FCDD
:1028D00027FA06F8C06807FA02F2F0404CEA080C42
:1028E00042EA0006A3FB0132ACFB01C0A6FB01617A
:1028F00001EB0C068E4234BF4FF0010C4FF0000C80
:10290000C1186144BCF1000F02D0814202D903E03A
:10291000814201D2012000E00020104400F1200299
:102920004FEA92188006CA0C40EA42304F03C5F8BD
:10293000008001F04FFB8246384601F063FB6FF0E8
:10294000120101F00EFE0746304601F05BFB6FF00E
:10295000250101F006FE83463946504601F0B4F9E0
:10296000594601F0B1F900F500666FF30B065146C8
:10297000304601F04FFD394601F04CFD594601F05B
:10298000B7FC104901F086FB07460F49304601F0BD
:1029900081FB394601F098F907460C49304601F0B1
:1029A00079FB394601F090F914F0004F08BFBDE8FB
:1029B000F08DC8F1805180F000402960BDE8F08DB5
:1029C0002C230000DB0FC92F22AAFD290000C92FEC
:1029D00010B5FDF7FBFEFFF731FEFFF7FFFB01F03F
:1029E00039F9FDF7B5FF00F00FFF01F0E3F8032020
:1029F000FDF758FC10BD00002DE9F0474FF068428C
:102A000002EB40030C460546B3F1654F3CBF02EBB9
:102A10004102B2F1654F7CD2C0F3C753C1F3C75234
:102A20009A1A1B2A06DD10F0004F14BF764877482B
:102A3000BDE8F08712F11A0F17DA11F0004F06D037
:102A400010F0004F0CBF72487248BDE8F087214675
:102A5000284601F0ADF90446FFF7E5FE042808BF5B
:102A6000FFF7FDFE2046BDE8F0874200B2EB410FC4
:102A700025D910F0004F19BF674F684E684F694E57
:102A8000224685F0004415460A4680F00041104673
:102A90000A1A5200B2F1807F40D248406249DFF802
:102AA0008CA110F0004F18D04FF03F48384601F08D
:102AB000B1FC07465146304601F0ACFC17E011F07E
:102AC000004F04BF00263746E2D010F0004F19BF78
:102AD000574F584E584F594EDAE74FF07C5838460A
:102AE00001F0F2F807465146304601F0EDF806468F
:102AF0004146284601F0CEFA214601F0E5F882462B
:102B00002146404601F0C6FA294601F0F1FB514644
:102B100000E037E001F04CF9044604E02146284685
:102B200001F046F90446014601F0B4FA80464449F2
:102B300001F0B0FA434901F0C7F8414601F0AAFAA2
:102B4000414901F0C1F8414601F0A4FA3F4901F0C2
:102B5000BBF8414601F09EFA3D4901F0B5F8054643
:102B60004146204601F096FA294601F093FA314693
:102B700001F0AAF8214601F0A7F83946BDE8F04770
:102B800001F0A2B84FF07F42B2EB400F28BFB2EB8A
:102B9000410F03D2BDE8F047FFF75BBE40EA0103F7
:102BA0005B0008BF44F0FF410AD0B2EB400F08BF02
:102BB000B2EB410F06D125F0804024F0804105465C
:102BC0000C4629E7B2EB400F12BF5FEA410245F025
:102BD000FF4004F000413FF41FAF4A0092EA400377
:102BE0003FF51AAF002AACBF4FF09F464FF03E565C
:102BF000314601F04FFA05463146204601F04AFAC7
:102C000004462846214607E7DB0FC9BFDB0FC93F53
:102C1000DB0F4940DB0F49C00000C9BF22AAFDB944
:102C20000000C93F22AAFD390060ED3EC30ACE373D
:102C3000000049C022AA7DBA0000494022AA7D3A7C
:102C40002DAD65BD8FB8D53D0FB511BE61C84C3EE9
:102C5000A8AAAABE2DE9F843044602464F48694691
:102C6000B0EB420F09D94FF0E640B0EB420F94BFF2
:102C700000204FF0FF30009030E0494B22F0004040
:102C8000834271D94749204601F004FA01F000FB64
:102C9000804601F083F900F003000090424940466D
:102CA00001F0F8F905464149404601F0F3F90646BE
:102CB0003F49404601F0EEF907463E49404601F0E3
:102CC000E9F9214601F014FB394601F0A3FB314636
:102CD00001F0A0FB294601F09DFB04462546009C1F
:102CE000002C45DB294614F0010F08461CD001F0EA
:102CF000D1F90646304901F0CDF9304901F0F8FA32
:102D0000314601F0C7F92E4900F0DEFF314601F0EF
:102D1000C1F9294601F0BEF9294600F0D5FF14F0AB
:102D2000020F1CD0BDE8F88301F0B4F9054625492F
:102D300001F0B0F9244900F0C7FF294601F0AAF9D3
:102D4000224900F0C1FF294601F0A4F94FF07E515D
:102D500000F0BAFF14F0020F08BFBDE8F88380F05E
:102D60000040BDE8F883FFE71046FFF77DFDB4E7BC
:102D70006800B0F17F4F3CBF4FF07E50BDE8F88354
:102D800007D14FF00100FDF747FABDE8F843FFF720
:102D900062BD2846BDE8F843FFF758BDB61F927ED6
:102DA000490E494683F9223F1A61342C0020A23390
:102DB00000A0FD390000C93F336D4C39DA82083C70
:102DC000A0AA2ABEB93AB2BACA9F2A3DDDFFFFBE09
:102DD00010B5D948006830B9D848D9490860D948F1
:102DE000D94908608DE1D448006802280CDAD2483D
:102DF0000068D24940F6C41202FB0010D0490860B6
:102E0000D048D14908607CE1CB48006803280DDA3E
:102E1000CE48CB490860C8480068401EC94941F205
:102E2000707202FB0010C84908606AE1C24800687D
:102E300005280DDAC0480068801EC44940F6C41257
:102E400002FB1010BE490860C148BF49086058E144
:102E5000B948006807280DDABE48B9490860B64885
:102E60000068001FBA4941F2707202FB1010B649A7
:102E7000086046E1B04800680A280DDAAE480068EC
:102E8000801FB44940F6C41202FB0010AC49086030
:102E9000B148AD49086034E1A74800680D280DDA53
:102EA000AE48A7490860A44800680938AA4941F219
:102EB000707202FB0010A449086022E19E4800687D
:102EC00011280DDA9C4800680C38A44940F6C41259
:102ED00002FB10109A490860A1489B49086010E164
:102EE0009548006815280CDA9E4895490860924874
:102EF000006810389A494A1102FB10109249086084
:102F0000FFE08D4800681A280DDA8B4800681438F5
:102F1000944940F6C41202FB0010894908609248A7
:102F200089490860EDE0844800681F280DDA8F4861
:102F3000834908608048006819388B4941F27072F3
:102F400002FB001080490860DBE07B480068252810
:102F50000DDA794800681E38844940F6C41202FB35
:102F6000101077490860824877490860C9E07248C4
:102F700000682B280DDA7F48714908606E480068A8
:102F800024387B4941F2707202FB10106E490860D0
:102F9000B7E06948006832280DDA674800682A38C7
:102FA000744940F6C41202FB00106549086072487B
:102FB00065490860A5E06048006839280DDA6F4867
:102FC0005F4908605C48006831386B4941F27072B3
:102FD00002FB00105C49086093E0574800684128F4
:102FE0000DDA554800683838644940F6C41202FBCF
:102FF00010105349086062485349086081E04E4808
:10300000006849280DDA5F484D4908604A48006861
:1030100040385B4941F2707202FB10104A49086067
:103020006FE04548006852280DDA43480068483888
:10303000544940F6C41202FB00104149086052484E
:10304000414908605DE03C4800685B280DDA4F4864
:103050003B4908603848006851384B4941F270726A
:1030600002FB0010384908604BE0334800686528CF
:103070000DDA314800685A38444940F6C41202FB60
:1030800010102F49086042482F49086039E02A484B
:1030900000686F280DDA3F48294908602648006813
:1030A00064383B4941F2707202FB101026490860F7
:1030B00027E021480068A6280DDA1F4800686E380E
:1030C000344940F6C41202FB00101D490860324822
:1030D0001D49086015E018480068B0F5857F0DDAD5
:1030E00015480068A5382D4940F6C41202FB10109F
:1030F0001349086028481449086002E000200E497E
:1031000008600D480068401C0B4908600C480068C6
:103110004FF47A7190FBF1F42146002000F040F862
:10312000094800684FF47A7190FBF1F421460120C0
:1031300000F036F810BD00005C000020287C06007E
:103140003C00002020BF020040000020EC8506006B
:1031500090D6020064720600B0A70200B08F06008D
:1031600000EE0200A068060040900200749906007C
:1031700070050300DC5E0600D078020038A306006C
:10318000E01C03001855060060610200FCAC06005C
:1031900050340300544B0600C0D401007064080092
:1031A00070B505460C46012D0AD104F17800DF28E0
:1031B00006DBB0F5C07F03DAA1B20220FDF7FCFB0D
:1031C0004DB9B4F5967F06DBB4F5167F03DCA1B2EA
:1031D0000020FDF7F1FB70BD70B50446012C06D050
:1031E000022C3AD0032C53D0042C35D16DE0FDF7DE
:1031F000F9F90120564908605649087000205649DF
:10320000086048605548886048610020C8600861CF
:103210005349086048605148886048610020C86090
:103220000861504908705049086050490860504989
:10323000086050490860504850490860504851495A
:1032400008600020504908605049086050490860F3
:10325000504908605049086077E000204F490860F5
:103260004F48006800F0B6FE05464E4900F0A0FD4C
:103270004D4908604D48006800F0ACFE05464949DC
:1032800000F096FD4A4908600220324908705CE06F
:103290004548006800F082FE4649086044480068DE
:1032A00000F07CFE444908604448006844490860D6
:1032B0004448006844490860002044490870444973
:1032C00008600320234908703FE0FDF795F90420CA
:1032D000204908703748006800F07CFE32490860D9
:1032E0003548006800F076FE314908602E480068D5
:1032F000384908602E480068374908603748006838
:1033000037490860002021490860214908602149A7
:10331000086021490860134908701349086013497F
:10332000086013490860134908601348134908608E
:1033300013481449086000201349086027480068B2
:1033400000F048FE2749086000BF00BF70BD0000C4
:103350005C000020540000209C0000200000C842B7
:10336000B4000020E4000020EC000020E800002071
:10337000CC000020D00000206666663FD40000200C
:103380007593F83FD8000020DC00002010010020D9
:1033900014010020080100200C010020580000202A
:1033A0003C00002000007A4444000020400000203F
:1033B000480000204C000020500000207000002039
:1033C00080000020740000208400002060000020A5
:1033D00088000020180100201C0100206800002047
:1033E0006C000020E0000020FFF7F2FA4FF4E171DA
:1033F0000020FFF7D5FE4FF4FF710220FDF7DCFA45
:10340000FDF7D2F8E9E1F5480068F5490968884216
:103410001FD0F2480068012805D14FF4C8710D2073
:10342000FDF7CAFA11E0ED480068022805D14FF413
:10343000A0710D20FDF7C0FA07E0E848006820B948
:103440004FF4B4710D20FDF7B7FAE4480068E44981
:103450000860E4480078E449097888427DD0E14872
:103460000078B8B94FF4FA620121084600F008FB71
:103470004FF4FA620121022000F002FB4FF4FA62DD
:103480000121032000F0FCFA4FF4FA62012104202C
:1034900000F0F6FAD3480078072817D140F6AC526E
:1034A0000221012000F0ECFA4FF4616203210220B6
:1034B00000F0E6FA40F6AC520321084600F0E0FACC
:1034C00040F6AC520221042000F0DAFAC548007838
:1034D000082817D140F6AC520321012000F0D0FAA1
:1034E00040F6AC520221084600F0CAFA40F6AC524F
:1034F0000221032000F0C4FA40F6AC52032104205C
:1035000000F0BEFAB7480078032817D140F6D86219
:103510000321012000F0B4FA40F63C72032102209E
:1035200000F0AEFA40F6D8620321084600F0A8FA8F
:1035300040F6D8620321042000F0A2FAA9480078DE
:10354000042819D14FF47A620221012000F098FA80
:103550004FF47A620221084600E080E000F090FA21
:103560004FF47A620221032000F08AFA4FF47A6263
:103570000221042000F084FA9A480078052817D127
:1035800040F6C4120221012000F07AFA40F6C4127B
:103590000321022000F074FA40F6C4120221032035
:1035A00000F06EFA40F6C4120321042000F068FA1D
:1035B0008C480078062817D140F6C4120321012058
:1035C00000F05EFA40F6C4120221084600F058FAF4
:1035D00040F6C4120321084600F052FA40F6C41225
:1035E0000221042000F04CFA7E480078012816D110
:1035F0004FF4FA62022100F043FA4FF4FA62032119
:10360000022000F03DFA4FF4FA620321084600F070
:1036100037FA4FF4FA620221042000F031FA7148BF
:103620000078022817D14FF4FA620321012000F03C
:1036300027FA4FF4FA620221084600F021FA4FF40B
:10364000FA620221032000F01BFA4FF4FA62032110
:10365000042000F015FA6348007863490870634855
:10366000007863490978884247D060480078032889
:1036700005D14FF4FA620121052000F001FA5B4800
:103680000078022805D14FF47A720321052000F05A
:10369000F7F956480078012805D14FF4FA62032162
:1036A000052000F0EDF95148007828B940F6B8320D
:1036B0000321052000F0E4F94C480078042805D1E6
:1036C0004FF47A720221052000F0DAF947480078B9
:1036D000052804D14FF4FA62022100F0D1F94348E1
:1036E0000078062805D140F6B8320221052000F006
:1036F000C7F93E4800783E4908703E4800783E4988
:10370000097888422FD03B480078012804D14FF433
:103710009B710820FDF750F936480078022804D143
:103720004FF4CD710820FDF747F93248007820B9F1
:103730004FF4B4710820FDF73FF92E4800780328B4
:1037400004D14FF487710820FDF736F92948007835
:10375000042804D14FF4E1710820FDF72DF9254824
:1037600000782549087010212448FCF76CFE0128D8
:103770000BD123480078012807D100202049087088
:103780004FF4B4710320FDF717F91D4800781D4967
:103790000978884221D01A480078012808D11021E0
:1037A0001648FCF750FE18B978210320FDF704F9FC
:1037B00013480078022804D14FF416710320FDF756
:1037C000FBF80F48007820B94FF4B4710320FDF7DF
:1037D000F3F80B4800780B49087014E62C01002020
:1037E0003C010020210100202201002023010020B3
:1037F00024010020290100202A01002000080140A6
:10380000250100202601002008B501210420FDF734
:10381000E9F901210820FDF7E5F910208DF80300F2
:10382000ADF8000003208DF8020069462548FCF73A
:103830007FFD10212348FCF70FFE10208DF80300B8
:103840008020ADF8000003208DF8020069461D4875
:10385000FCF76EFD80211B48FCF700FE48208DF828
:1038600003004FF48050ADF8000069461648FCF79D
:103870005FFD4FF40050ADF8000069461248FCF7B8
:1038800057FD2020ADF8000069460F48FCF750FDB9
:103890004020ADF8000069460B48FCF749FD802048
:1038A000ADF8000069460848FCF742FD48208DF855
:1038B00003001020ADF8000069460248FCF738FD0F
:1038C00008BD000000080140000C01402DE9F8434C
:1038D0000446024652486946B0EB420F09D94FF000
:1038E000E640B0EB420F94BF00204FF0FF30009055
:1038F00030E04C4B22F00040834271D94A492046C7
:1039000000F0C8FB00F0C4FC804600F047FB00F06C
:10391000030000904549404600F0BCFB0546444981
:10392000404600F0B7FB06464249404600F0B2FB75
:1039300007464149404600F0ADFB214600F0D8FC67
:10394000394600F067FD314600F064FD294600F07D
:1039500061FD04462546009C002C45DB294614F0F9
:10396000010F08461ED000F095FB0546334900F0D4
:1039700091FB334900F0A8F9294600F08BFB31494F
:1039800000F0A2F9294600F085FB4FF07E5100F0CF
:103990009BF914F0020F08BFBDE8F88380F00040E7
:1039A000BDE8F88300F076FB0646274900F072FB7D
:1039B000264900F09DFC314600F06CFB244900F0E4
:1039C00083F9314600F066FB294600F063FB294687
:1039D00000F07AF914F0020FE0D1BDE8F883FFE7B8
:1039E0001046FEF741FFB4E76800B0F17F4F09D2FF
:1039F0002846FEF718FF042808BFFEF730FF2846C8
:103A0000BDE8F88306D10120FCF706FCBDE8F843C9
:103A1000FEF721BF2846BDE8F843FEF717BF0000B8
:103A2000B61F927E490E494683F9223F1A61342C13
:103A30000020A23300A0FD390000C93FB93AB2BA54
:103A4000CA9F2A3DDDFFFFBE336D4C39DA82083C48
:103A5000A0AA2ABE70B5054600F054FC044620F02A
:103A60000040C0F1FF40C00F08D025F00040C0F179
:103A7000FF40C00F04BF0120FCF7CEFB204670BD05
:103A80002DE9F05F81468B469246B9F1010F08DBC4
:103A9000B9F1050F05DCBAF1000F02DBBAF5805F62
:103AA00001DDBDE8F09FB9F1060F2AD2DFE809F089
:103AB00029030A111921802440253C4E37464FF036
:103AC00004081FE002240125384E37464FF0050850
:103AD00018E04FF480546510344E37464FF0060816
:103AE00010E04FF40064E510314E37464FF0070800
:103AF00008E04FF4004465102C4E37464FF00E0896
:103B000000E0CEE700BFBBF1010F09D0BBF1020F0F
:103B100013D0BBF1030F1ED0BBF1040F36D128E048
:103B200021463046FCF79AFC29463846FCF796FCBD
:103B300000214046FCF740FF35E021463046FCF7C7
:103B40008DFC29463846FCF787FC1FFA8AF140466F
:103B5000FCF732FF27E021463046FCF77DFC294682
:103B60003846FCF77BFC1FFA8AF14046FCF724FF3D
:103B700019E021463046FCF76FFC29463846FCF731
:103B80006BFC00214046FCF717FF0CE02146304655
:103B9000FCF762FC29463846FCF75EFC00214046F3
:103BA000FCF70AFF00BF00BF00BF7AE7000C01402E
:103BB0000008014008B501210C20FDF713F8102082
:103BC0008DF8030003208DF80200C020ADF800003E
:103BD00069461E48FCF7ACFB0320ADF800006946BF
:103BE0001A48FCF7A5FB4FF4C050ADF80000694639
:103BF0001648FCF79DFB4FF41060ADF800006946D5
:103C00001348FCF795FB4FF44040ADF800006946BF
:103C10000E48FCF78DFB002204210120FFF730FF46
:103C2000002204210220FFF72BFF002204210320A1
:103C3000FFF726FF002204210846FFF721FF00229C
:103C400004210520FFF71CFF08BD0000000C014007
:103C5000000801401FB501210220FCF7B3FF1948FD
:103C6000FDF737FA0020ADF80A00ADF80600632032
:103C7000ADF8080040F2CF20ADF8040000208DF828
:103C80000C0001A90F48FDF72BFA012211460D483F
:103C9000FDF716FA4FF4A060FCF7F4FC1D208DF838
:103CA000000001208DF8030002208DF801000120A2
:103CB0008DF802006846FCF7ADFC01210148FDF7D4
:103CC000E2F91FBD0004004090EA010F48BF81F0F7
:103CD000004100F1A683421A3CBF801A89184FEABE
:103CE000D0524FF07F4C1CEA410FA2EBD15318BFCA
:103CF0009CEA026F00F03B804FF0004C4CEA002041
:103D00004CEA012121FA03FC10EB0C0C1ED202F14B
:103D1000FF325FEA1C2040EBC25038BF70471CF0F6
:103D20007F0F4FEA400C18BFBCF17F4F38BF704780
:103D3000C3F12003994008BF20F00100BCF17F4F80
:103D400038BF7047A0F1C04000F06BBA4FEA3C00AA
:103D5000000A40EBC25028BF1CF0FF0F4FEA400C96
:103D6000E6D018BFBCF17F4F38BF7047EAE79CEA46
:103D7000026F05D010EA5C0F08BF00F000407047EA
:103D800010B500F008FA00BF64FBBE3E014800F029
:103D9000B6BB00BF0000C07F401058BFC0F140401C
:103DA000491058BFC1F140418142EFF30080704794
:103DB0004FF47F0C1CEAD0121EBF1CEAD11392EA0A
:103DC0000C0F93EA0C0F00F0858090EA010F48BFBA
:103DD00042F4807240F4000C41F400002CF07F416A
:103DE00020F07F4000B58142A2EB03020FF2081CD5
:103DF000ACEB504EC0F100009EF800E04FEA4E0ED2
:103E000000FB0EFC38BF49004FEA2C1C02F5FA02F9
:103E10000CFB0EF34FEACE1E4FEA112C4FEAC121E4
:103E20000EEB635E42EB22420EFB0CFC4FEA1C538E
:103E300000FB03114FEA112C4FEA01310EFB0CFC81
:103E40004FEADC4C00FB0C11C14228BF09184CEBB7
:103E500003335DF804EB10EB410143EBC250B2F5C4
:103E60007C0F38BF704729D512F0F00F1CBF00F14E
:103E7000C04000F0004070470081828384858687BF
:103E800088898B8C8D8E8F919293959697999A9C19
:103E90009D9FA0A2A3A5A7A8AAACAEB0B2B3B5B788
:103EA000B9BCBEC0C2C5C7C9CCCED1D4D7D9DCDF5E
:103EB000E2E6E9ECF0F3F7FAFE0000004FEA400C0E
:103EC0000CF1807CBCF17E4F28BF7047B0F1C04040
:103ED00000F0A7B990EA010F0CEAD11348BF42F4F1
:103EE0008072624538BF634507D213F47F0F16D046
:103EF00080EA010000F00040704710B500F04BF977
:103F0000097EFC3E00F005B880EA010000F00040A8
:103F1000704780EA010000F0004000F082B912F41E
:103F20007F0F04BF0248704780EA010000F079B9B2
:103F30000000C07F50EA010C00F113801CF5000F57
:103F400058BFBCF5000F01D48842704707D710F561
:103F5000000F58BF11F5000F15D4884270478942F1
:103F600070471CF5000F04D5BCF5000FF7D5814252
:103F700070474FF0807C1CEB400F38BF1CEB410FAB
:103F800001D28142704710B500F005F99224490032
:103F90004FF000504FF08051FFF7FEBE41000B0E76
:103FA000D3F19E0208D950F400034FEA032323FA09
:103FB00002F048BF4042704710B500F0ECF800BF77
:103FC00049922480002070476FF0004282EA20006E
:103FD0007047000010F0004148BF4042B0FA80F343
:103FE00010FA03F2C3F19D030BD051EAC35101EB68
:103FF0001220530638BF704700F1010008BF20F0BF
:1040000001007047B0FA80F310FA03F2C3F19D0388
:104010000AD0D90501EB1220530638BF704700F1D2
:10402000010008BF20F001007047000050EA010CB9
:1040300000F113801CF5000F58BFBCF5000F01D430
:104040008842704707D710F5000F58BF11F5000FD1
:1040500015D488427047894270471CF5000F04D57B
:10406000BCF5000FF7D5814270474FF0807C1CEB08
:10407000400F38BF1CEB410F01D28142704710B591
:1040800000F089F8922449004FF000504FF0805121
:10409000FFF782BE4FF47F0C1CEAD0121EBF1CEA51
:1040A000D11392EA0C0F93EA0C0F00F0478090EACC
:1040B000010F48BF42F480724FF0004C4CEA0020E0
:1040C0004CEA012102EB0302A0FB0113A2F500025E
:1040D000002918BF43F001035B0028BF4FEA3303F8
:1040E00042EB22425FEA132C4CEBC2502EBFBCEBDA
:1040F000436FB2F57C0F70474FEA036CBCF1004F81
:1041000008BF20F00100B2F57C0F38BF70470BD517
:1041100082F0FF0212F5803FC8BF704700F1C04037
:10412000D8BF00F00040704700F5000C5FEA4C0C6F
:1041300048BF7047B0F1C04000F073B890EA010F7B
:104140000CEAD11348BF42F48072624538BF634520
:1041500004D280EA010000F00040704710B500F082
:104160001AF800BF8900013E00F007B800F009B856
:104170005FEA410C5FEA1C6C08D080EA010000F0A5
:1041800050B85FEA400C5FEA1C6CF6D14FF000407B
:10419000A0F5800070470EF1020E2EF0030E5EF8BF
:1041A000044B244204D44FEA4102B2F17F4F11D8AC
:1041B0004FEA4003B3F17F4F0CD80ED14FEAD07CC9
:1041C000B2F17F4F0CEB4C0C0CF1020C08BF4CEB26
:1041D000D17C04E04FF0080C01E04FEAD17C0CEBFD
:1041E0004C0324FA03F404F00704B4F1040C06D2DF
:1041F0000EEB840CBDE810404CF0010C6047DFE88A
:104200000CF0070802024FF00040A0F5800010BD3E
:104210000846420018BFD2F1807288BF00F000400B
:1042200010BDFF2141EAD050C005704751EA000C93
:1042300000F113801CF5000F58BFBCF5000F01D42E
:104240008142704707D711F5000F58BF10F5000FD6
:1042500015D481427047894270471CF5000F04D580
:10426000BCF5000FF7D5884270474FF0807C1CEBFF
:10427000410F38BF1CEB400F01D28842704780EAE3
:10428000010081EA000180EA0100FFF7F8BE0000AA
:104290005FEA400C5FEA1C6CBCF17F0314D4D3F1DD
:1042A000170240F31C804FF0010C0CFA02FCACF139
:1042B00001030340B3EB5C0220EA030008BF10EAED
:1042C0000C0F88BF60447047B3F1FF3F28BF5FEA1F
:1042D000002C00F0004088BF40F07E507047BCF1D9
:1042E000FF0FB8BF704710B5FFF755FF40DBB6BEF4
:1042F00080F0004090EA010F7FF5EDAC81F00041C5
:1043000000F08FB84FEAD051002988BFD1F1FF02E9
:1043100040F2758001F17D014FEA002070B5490837
:1043200040F0004038BF40080EA2430E040CD25C9F
:1043300002FB02F304FB03F3C3F14043A3FB02546B
:10434000ED0D45EA442202FB02F3A0FB03546D424B
:10435000C4F1404438BF641EA2FB05350023E2FBD4
:104360000453EA0B42EA4342A0FB023212F140043A
:10437000A2F12103E40903F07F031F2B32D904EBE0
:10438000C15070BDFEFAF7F3F0ECE9E6E4E1DEDCE3
:10439000D9D7D4D2D0CECCCAC8C6C4C2C1BFBDBC86
:1043A000BAB9B7B6B4B3B2B0AFAEACABAAA9A8A70E
:1043B000A6A4A3A2A1A09F9E9E9D9C9B9A9998971C
:1043C000979695949393929190908F8E8E8D8C8CDE
:1043D0008B8A8A8989888787868685848483838275
:1043E0008281818004FB04F6B6EB004603D5E642E9
:1043F00048BF641CC3E7A64258BF641CBFE711F066
:10440000FF0F02D100F00040704710B5FFF7C3FE68
:104410007FDBFFBE90EA010F48BF81F000413FF50E
:104420005AAC421A04D882F00042A0EB02001144B8
:104430004FEAD0524FF07F4C1CEA410FA2EBD15310
:1044400018BF9CEA026F4AD04FF0004C4CEA0020A3
:104450004CEA012121FA03FCB0EB0C0C0FD412F052
:10446000FE0F36D05FEA4C001DD5001240EBC25063
:1044700038BF70471CF03F0F18BF70470BE0A2F128
:1044800001025FEA1C2040EBC25038BF70471CF0AD
:104490007F0F18BF7047C3F12003994014BF401E1F
:1044A00020F00100704780084FEA122308BF7047D0
:1044B000B0FA80FCA2EB0C02CCF1280C60FA0CF0F4
:1044C00093EA122F04BF00EBC25070474FEAC3704B
:1044D0007047130A5FEADC1008BF7047F6E79CEAF2
:1044E000026F04D010EA5C0F08BF0020704710B5BF
:1044F000FFF751FE40DFF63E81F0004070470CF0C0
:104500000F03092B08BF082000F051800A2B0BD0A5
:10451000082B18BF704708BF1CF0400F0AD04FF09F
:1045200000004FF0000170471CF0400F18BF4FF023
:10453000004070471CF0100F08D020F0704300F0CE
:104540007F4242EAD3014FEA4370704700F0604077
:1045500021F07F4242EA000201F07F4040EA72709F
:1045600070474FF0FF0212EAD0521CBF92F0FF03D7
:104570008B42C2BFD14200EBC1507047002A0AD023
:10458000002B0BD0002900F00040A4BF40F0FE40FB
:1045900040F40000704700F00040704743024FF0C5
:1045A0000B0C18BF4CF0806C7FF4F0AB70471CF420
:1045B000801F11D01CF4E02F03D06FEACC314900EA
:1045C00070474FF04050EFF3008222F0704242EA11
:1045D000000282F3008870474FF00000704700002F
:1045E00000000000000000000000000000000000CB
:1045F00000F8000000000000003330000000001050
:104600000C06100C0600000000000000000040C076
:104610007840C0784000043F04043F040400007068
:1046200088FC08300000001820FF211E0000F00860
:10463000F000E018000000211C031E211E0000F005
:104640000888700000001E2123241927211010164D
:104650000E0000000000000000000000000000004C
:1046600000E01804020000000007182040000002CB
:104670000418E0000000004020180700000040403F
:1046800080F0804040000202010F010202000000A1
:1046900000F0000000000101011F01010100000005
:1046A00000000000000080B070000000000000006A
:1046B00000000000000000010101010101010000F3
:1046C000000000000000003030000000000000008A
:1046D000000080601804006018060100000000E07F
:1046E00010080810E000000F102020100F0000102C
:1046F00010F8000000000020203F20200000007083
:10470000080808887000003028242221300000307A
:104710000888884830000018202020110E00000072
:10472000C02010F8000000070424243F240000F8F3
:104730000888880808000019212020110E0000E0D8
:10474000108888180000000F112020110E0000387A
:104750000808C83808000000003F00000000007092
:10476000880808887000001C222121221C0000E01B
:1047700010080810E0000000312222110F00000094
:1047800000C0C00000000000003030000000000049
:1047900000800000000000008060000000000000B9
:1047A0008040201008000001020408102000404052
:1047B0004040404040000404040404040400000895
:1047C000102040800000002010080402010000704A
:1047D00048080808F0000000003036010000C03032
:1047E000C828E810E0000718272423140B00000055
:1047F000C038E0000000203C23020227382008F8DF
:10480000888888700000203F202020110E00C030D2
:10481000080808083800071820202010080008F8A9
:1048200008080810E000203F202020100F0008F8A2
:104830008888E8081000203F20202320180008F86E
:104840008888E8081000203F200003000000C030E6
:1048500008080838000007182020221E020008F867
:1048600008000008F808203F210101213F2000082E
:1048700008F8080800000020203F20200000000069
:104880000808F8080800C08080807F00000008F851
:1048900088C028180800203F20012638200008F88A
:1048A000080000000000203F20202020300008F8F1
:1048B000F800F8F80800203F003F003F200008F80B
:1048C00030C00008F808203F200007183F00E01023
:1048D00008080810E0000F10202020100F0008F832
:1048E00008080808F000203F210101010000E01045
:1048F00008080810E0000F18242438504F0008F86A
:10490000888888887000203F2000030C30200070C9
:104910008808080838000038202121221C001808C7
:1049200008F8080818000000203F2000000008F8E0
:1049300008000008F808001F202020201F00087829
:10494000880000C83808000007380E010000F80889
:1049500000F80008F800033C0700073C03000818B3
:1049600068808068180820302C03032C3020083819
:10497000C800C83808000000203F200000001008D0
:104980000808C83808002038262120201800000018
:1049900000FE020202000000007F40404000000CC8
:1049A00030C000000000000000010638C000000216
:1049B0000202FE000000004040407F0000000000B6
:1049C00004020202040000000000000000000000D9
:1049D00000000000000080808080808080800002D5
:1049E00002040000000000000000000000000000C1
:1049F0008080808000000019242222223F2008F8B5
:104A0000008080000000003F112020110E000000F7
:104A1000008080800000000E112020201100000086
:104A200000808088F800000E112020103F20000038
:104A3000808080800000001F22222222130000803C
:104A400080F0888888180020203F20200000000087
:104A5000808080808000006B94949493600008F8BC
:104A6000008080800000203F210000203F20008047
:104A70009898000000000020203F20200000000047
:104A800000809898000000C08080807F000008F8B7
:104A9000000080808000203F24022D30200000088C
:104AA00008F8000000000020203F20200000808047
:104AB000808080808000203F20003F20003F808059
:104AC000008080800000203F210000203F20000067
:104AD000808080800000001F202020201F00808018
:104AE00000808000000080FFA12020110E00000047
:104AF000008080808000000E112020A0FF80808038
:104B000080008080800020203F21200001000000E4
:104B100080808080800000332424242419000080B9
:104B200080E0808000000000001F202000008080C6
:104B3000000000808000001F202020103F20808087
:104B400080000080808000010E3008060100808017
:104B50000080008080800F300C030C300F0000803C
:104B60008000808080000020312E0E312000808067
:104B700080000080808080818E7018060100008097
:104B80008080808080000021302C222130000000B5
:104B90000000807C020200000000003F4040000056
:104BA0000000FF00000000000000FF000000000205
:104BB000027C800000000040403F00000000000632
:104BC00001010202040400000000000000000000D7
:104BD000000000006E83F9A22915444ED15727FC2E
:104BE000C0DD34F5999562DB4190433CAB6351FEE7
:104BF000104C0008000000204C01000028010008B3
:104C0000744C00084C010020F406000084010008E8
:104C1000412D0102030404C0090607080902040625
:104C200008021B0114D0DD063420BF0223E1431A21
:104C30003404C934E90801222B803F043223D21402
:104C40000B2AC8420C18086666663F7593F84C013B
:104C50001E4D6F12033C08031A833A4B0103C249ED
:104C6000C6327832641A58F72912327932651A57E7
:044C70001000000030
:04000005080000ED02
:00000001FF
